S00E0000536C617665312E73726563EA
S11300000C9434000C9451000C9451000C94510045
S11300100C9451000C9451000C9451000C94510018
S11300200C9451000C9451000C9451000C94510008
S11300300C9451000C9451000C9451000C945100F8
S11300400C9451000C9451000C9451000C945100E8
S11300500C9451000C9451000C9451000C945100D8
S11300600C948B000C94510011241FBECFEFD8E0E8
S1130070DEBFCDBF11E0A0E0B1E0E2E6F9E002C0EE
S113008005900D92AE30B107D9F721E0AEE0B1E0B2
S113009001C01D92A531B207E1F70E9423010C941F
S11300A0AF040C9400008AB18E7F8AB98AB1826051
S11300B08AB9E0ECF0E01082808182608083E1EC18
S11300C0F0E01082808188698083E2ECF0E01082A5
S11300D08081866080838FEC90E09093C50080934C
S11300E0C400089597B19F7C97B9880F8093BA0094
S11300F085E48093BC00089583E884BD83E085BDD6
S113010008951092800082E080938100109285000F
S11301101092840008951F920F920FB60F9211242B
S11301208F939F93EF93FF938091B9008C7F8038D6
S113013099F028F4803651F0803741F02FC0883A86
S1130140A9F0883B99F0803949F506C0ECEBF0E062
S113015080818068808327C08091BB0080930E01DA
S1130160ECEBF0E08081806880831DC080910F01FA
S113017081110AC080911001909111019093BB00EC
S113018081E080930F0106C08091100190911101CC
S11301908093BB0085EC8093BC0005C0ECEBF0E0E1
S11301A0808180698083FF91EF919F918F910F905F
S11301B00FBE0F901F90189585B18F7D85B98AE089
S11301C08A95F1F700C085B1806285B985E38A9587
S11301D0F1F7000085B18F7D85B94A9BFECF10925F
S11301E08500109284004A99FECF809184009091FA
S11301F08500909313018093120120911201309194
S11302001301AFE9B6E40E94A201969587959295F1
S113021082958F7089279F7089279093110180930D
S1130220100110920F0108952FE1AC01249FC00129
S1130230259F900D112467E970E00E948E01862F9E
S1130240609314010895CF93DF93CDB7DEB7609721
S11302500FB6F894DEBF0FBECDBFF89484B18062B0
S113026084B98AB180648AB984B1806184B98AB15D
S11302708B7F8AB90E9481000E947C0080E10E94E9
S113028072000E945300789480E090E00E94140170
S113029087BD0E94DC002FEF8DEE92E0215080405C
S11302A09040E1F700C0000080911001909111018D
S11302B0883078F485B1806185B988E790E00E9440
S11302C0140187BD8FE19EE40197F1F700C000009F
S11302D00EC085B18F7E85B980E090E00E94140144
S11302E087BD8FE19EE40197F1F700C00000809183
S11302F01001909111019F938F9380E091E09F935F
S11303008F93CE0101969F938F930E94C5010F9006
S11303100F900F900F900F900F90BBCF97FB072E6D
S113032016F4009407D077FD09D00E94B10107FCB0
S113033005D03EF4909581959F4F089570956195F1
S11303407F4F0895A29FB001B39FC001A39F700D7A
S1130350811D1124911DB29F700D811D1124911DC9
S11303600895AA1BBB1B51E107C0AA1FBB1FA617F8
S1130370B70710F0A61BB70B881F991F5A95A9F74A
S113038080959095BC01CD010895AEE0B0E0EBEC12
S1130390F1E00C9486040D891E8986E08C831A830F
S11303A009838FEF9FE79E838D83AE01475E5F4F86
S11303B06F89788DCE0101960E94E701EF81F8855F
S11303C0E00FF11F10822E96E4E00C94A204ABE03F
S11303D0B0E0EDEEF1E00C9478046C017B018A014D
S11303E0FC0117821682838181FFCCC1CE01019664
S11303F03C01F6019381F70193FD859193FF81916F
S11304007F01882309F4BAC1853239F493FD8591BB
S113041093FF81917F01853229F4B60190E00E9417
S1130420DE03E7CF912C212C312CFFE1F315D8F01A
S11304308B3279F038F4803279F08332A1F4232DB1
S113044020611DC08D3261F0803369F4232D216059
S113045016C0832D8260382EE32DE4603E2E2AC020
S1130460F32DF8601DC037FC2DC020ED280F2A3075
S113047040F08E32B9F436FC81C1232D2064322E33
S113048019C036FE06C08AE0989E200D1124922ED3
S113049011C0EAE02E9E200D1124222EF32DF062CD
S11304A03F2E08C08C3621F4832D8068382E02C07C
S11304B0883641F4F70193FD859193FF81917F0183
S11304C08111B3CF982F9F7D9554933028F40C5FFE
S11304D01F4F9FE399830DC0833631F0833771F04A
S11304E0833509F059C021C0F801808189830E5FEA
S11304F01F4F88248394912C530113C02801F2E0E8
S11305004F0E511CF801A080B18036FE03C0692D46
S113051070E002C06FEF7FEFC5010E94D3034C016E
S11305208201F32DFF773F2E16C0280122E0420EF0
S1130530511CF801A080B18036FE03C0692D70E023
S113054002C06FEF7FEFC5010E94C8034C01F32D79
S1130550F0683F2E820133FC1BC0822D90E0881688
S11305609906B0F4B60180E290E00E94DE032A947A
S1130570F4CFF50137FC859137FE81915F01B60117
S113058090E00E94DE0321102A9421E0821A91084F
S11305908114910471F7E8C0843611F0893641F56D
S11305A0F80137FE07C060817181828193810C5FFD
S11305B01F4F08C060817181072E000C880B990BB6
S11305C00E5F1F4FF32DFF763F2E97FF09C09095C6
S11305D08095709561957F4F8F4F9F4FF0683F2EA8
S11305E02AE030E0A3010E941A04882E861845C030
S11305F0853731F4232D2F7EB22E2AE030E025C03A
S1130600932D997FB92E8F36C1F018F4883579F07F
S1130610B5C0803719F0883721F0B0C0E92FE06108
S1130620BE2EB4FE0DC0FB2DF460BF2E09C034FEF7
S11306300AC0292F2660B22E06C028E030E005C08B
S113064020E130E002C020E132E0F801B7FE07C04B
S113065060817181828193810C5F1F4F06C060812C
S1130660718180E090E00E5F1F4FA3010E941A0485
S1130670882E8618FB2DFF773F2E36FE0DC0232DC6
S11306802E7FA22E891458F434FE0BC032FC09C00C
S1130690832D8E7EA82E05C0B82CA32C03C0B82CA5
S11306A001C0B92CA4FE0FC0FE01E80DF11D80812C
S11306B0803321F49A2D997EA92E09C0A2FE06C08A
S11306C0B394B39404C08A2D867809F0B394A3FC40
S11306D011C0A0FE06C0B21488F4280C922C9B18FA
S11306E00EC0B21460F4B60180E290E00E94DE0312
S11306F0B394F7CFB21418F42B1802C0982C212C01
S1130700A4FE10C0B60180E390E00E94DE03A2FEC6
S113071017C0A1FC03C088E790E002C088E590E020
S1130720B6010CC08A2D867859F0A1FE02C08BE276
S113073001C080E2A7FC8DE2B60190E00E94DE03D6
S1130740891438F4B60180E390E00E94DE039A94A1
S1130750F7CF8A94F301E80DF11D8081B60190E092
S11307600E94DE038110F5CF222009F442CEB601A7
S113077080E290E00E94DE032A94F6CFF60186819F
S1130780978102C08FEF9FEF2B96E2E10C949404C3
S1130790FC010590615070400110D8F78095909548
S11307A08E0F9F1F0895FC0161507040019001104D
S11307B0D8F7809590958E0F9F1F08950F931F93E0
S11307C0CF93DF93FB01238121FD03C08FEF9FEFC4
S11307D02CC022FF16C046815781248135814217DF
S11307E0530744F4A081B1819D012F5F3F4F3183B2
S11307F020838C93268137812F5F3F4F3783268355
S113080014C08B01EC01FB010084F185E02D0995F6
S1130810892BE1F6D80116968D919C911797019634
S113082017969C938E931697CE01DF91CF911F91CB
S11308300F910895FA01AA27283051F1203181F14E
S1130840E8946F936E7F6E5F7F4F8F4F9F4FAF4FD4
S1130850B1E03ED0B4E03CD0670F781F891F9A1FE7
S1130860A11D680F791F8A1F911DA11D6A0F711D9B
S1130870811D911DA11D20D009F468943F912AE0A7
S1130880269F11243019305D3193DEF6CF0108958F
S1130890462F4770405D4193B3E00FD0C9F7F6CFC0
S11308A0462F4F70405D4A3318F0495D31FD405288
S11308B0419302D0A9F7EACFB4E0A695979587951E
S11308C077956795BA95C9F70097610571050895FD
S11308D09B01AC010A2E06945795479537952795A9
S11308E0BA95C9F7620F731F841F951FA01D089541
S11308F02F923F924F925F926F927F928F929F922C
S1130900AF92BF92CF92DF92EF92FF920F931F9319
S1130910CF93DF93CDB7DEB7CA1BDB0B0FB6F894CA
S1130920DEBF0FBECDBF09942A88398848885F840A
S11309306E847D848C849B84AA84B984C884DF807B
S1130940EE80FD800C811B81AA81B981CE0FD11D5F
S11309500FB6F894DEBF0FBECDBFED010895F89435
S1050960FFCFC3
S1110962446973743A20256420636D0A000012
S9030000FC
