S0130000536C6176655F50756C736F2E73726563A4
S11300000C9434000C9451000C9451000C94510045
S11300100C9451000C9451000C9451000C94F9016F
S11300200C9451000C9451000C9451000C94510008
S11300300C9451000C9451000C9451000C945100F8
S11300400C9451000C9451000C944D020C945100EA
S11300500C9451000C9451000C9451000C945100D8
S11300600C9460020C94510011241FBECFEFD8E011
S1130070DEBFCDBF11E0A0E0B1E0E4E1F6E002C0F4
S113008005900D92A831B107D9F721E0A8E1B1E0BC
S113009001C01D92A634B207E1F70E94BD000C9482
S11300A008030C94000097B19F7C97B9880F809344
S11300B0BA0085E48093BC00089582E08093B00088
S11300C096E09093B1009CE79093B3008093700006
S11300D00895AC0120E007C09091C00095FFFCCFCB
S11300E03093C6002F5FFA01E20FF11D3081311108
S11300F0F3CF0895ECE7F0E0108280818064808380
S113010080818F7D8083EAE7F0E0108280818068BF
S1130110808380818760808310927B0008958AB1F8
S11301208E7F8AB98AB182608AB9E0ECF0E01082ED
S1130130808182608083E1ECF0E0108280818869B4
S11301408083E2ECF0E010828081866080838FEC13
S113015090E09093C5008093C40008958AB18460B0
S11301608AB9F89480E20E9453000E945D000E94C4
S11301707A000E948F00789408950E94AE008CE06B
S113018091E00E946900C0913D01D0913E0100912F
S1130190060110910701C017D107F8F480910101FD
S11301A09091020165E070E00E949F02CB01880FEC
S11301B0991F680F791F8091250190912601681776
S11301C079075CF48091080190910901C817D90757
S11301D020F4D0930901C09308010C171D0758F4AB
S11301E080910A0190910B018C179D0720F4D09304
S11301F00B01C0930A0180910401813029F410920B
S1130200040180931A01BFCF8091250190912601AA
S11302108B3F91050CF49EC00C171D0708F09AC083
S113022080911901811196C0809101019091020180
S113023065E070E00E949F02CB01880F991F680F50
S1130240791F8091250190912601681779070CF098
S113025081C081E08093190180911F019091200158
S1130260A0912101B091220120911B0130911C0128
S1130270821B930B909302018093010140911F0113
S113028050912001609121017091220140931B0142
S113029050931C0160931D0170931E0120911A015B
S11302A0213089F410921A0120E030E009C0F901EC
S11302B0EE0FFF1FE95DFE4F918380832F5F3F4F59
S11302C02A303105A4F3109224011092230120E076
S11302D030E01CC0B9016F5F7F4FFB01EE0FFF1FC1
S11302E0E95DFE4F40815181220F331FF901E95D21
S11302F0FE4F518340832091230130912401420F0A
S1130300531F50932401409323019B01293031054D
S11303100CF390933A018093390120912301309199
S11303202401820F931F6AE070E00E949F02709381
S11303302401609323019B01770F440B550B60E666
S11303407AEE80E090E00E94B3022093030181E002
S113035080930001C017D107F0F480911901813016
S1130360D1F4109219018091080190910901209112
S11303700A01281B209305012695820F911D909355
S113038007018093060190930B0180930A019093D7
S11303900901809308018091250190912601853CF3
S11303A099400CF4F0CE80E092E0909307018093A2
S11303B006018CE192E090930B0180930A019093E3
S11303C009018093080180911F0190912001A0915F
S11303D02101B091220180931B0190931C01A093F1
S11303E01D01B0931E0181E08093040110921A0153
S11303F0CACE1F920F920FB60F9211242F933F93E0
S11304008F939F93AF93BF93EF93FF93EAE7F0E04B
S113041080818064808380917A0086FDFCCF209166
S113042078008091790090E0982F8827822B909310
S11304303E0180933D0180911F0190912001A09184
S11304402101B09122010296A11DB11D80931F01CB
S113045090932001A0932101B093220180911F0168
S113046090912001A0912101B091220120911B01C2
S113047030911C01821B930B9093260180932501DC
S1130480FF91EF91BF91AF919F918F913F912F91E8
S11304900F900FBE0F901F9018951F920F920FB6DA
S11304A00F9211248F9381E0809318018091C600EC
S11304B080933C018F910F900FBE0F901F90189561
S11304C01F920F920FB60F9211248F93EF93FF9305
S11304D08091B9008C7F803899F028F4803651F0EF
S11304E0803741F01FC0883AA9F0883B99F08039E1
S11304F0C9F406C0ECEBF0E080818068808317C00B
S11305008091BB0080933B01ECEBF0E0808180683C
S113051080830DC0809103018093BB0085EC8093A0
S1130520BC0005C0ECEBF0E0808180698083FF9122
S1130530EF918F910F900FBE0F901F90189597FB1E
S1130540072E16F4009407D077FD09D00E94D2023A
S113055007FC05D03EF4909581959F4F08957095C2
S113056061957F4F0895052E97FB1EF400940E9419
S1130570CA0257FD07D00E94E60207FC03D04EF4DE
S11305800C94CA0250954095309521953F4F4F4F9A
S11305905F4F089590958095709561957F4F8F4F2B
S11305A09F4F0895AA1BBB1B51E107C0AA1FBB1F85
S11305B0A617B70710F0A61BB70B881F991F5A95EB
S11305C0A9F780959095BC01CD010895A1E21A2E5A
S11305D0AA1BBB1BFD010DC0AA1FBB1FEE1FFF1FE3
S11305E0A217B307E407F50720F0A21BB30BE40B33
S11305F0F50B661F771F881F991F1A9469F760957A
S11306007095809590959B01AC01BD01CF01089533
S1070610F894FFCF88
S1130614015802FF01641C021C021C02486F6C6135
S10B0624204D756E646F0000A7
S9030000FC
